:020000040000FA
:10000000FE0E2500970C02003F0C34000600FF0C8A
:100010008D09FF0C8D09FF0C8D09FF0C8D09660001
:10002000830C160C400C37008A0C3800C00C77018A
:1000300097055D09200C6409C00C6409010C640972
:10004000180264091702640960090F0C7601F605AD
:10005000300AB6029606F600300AF600F607B60237
:100060005D09220C6409050C6409880C64091602F8
:1000700064096009940A5D09200C6409C30C6409D1
:10008000010C64096009940A5D09200C6409C10C23
:100090006409010C64096009940A540514020600FD
:1000A0000008540414020600000834051402060077
:1000B000000834041402060000085509510900081C
:1000C000510955094D0900083300080C320059093F
:1000D000F3076C0A4D096D0A510955097303F202C1
:1000E000670A59094D0955090602350059090008E2
:1000F000080C3200730073035909550946061305AD
:10010000F2027B0A590900085109550959094D099C
:1001100000084D0955095909000830003100F00266
:100120008F0AF1028F0A00086606940A61006607CA
:10013000970A010239001E0C99000307940A2D0C3E
:1001400099000306940A61006606A40A01023900B8
:100150000D0C99000307940A140C99000306940AE5
:100160007A001C0C24007B006000200361006607FD
:10017000B70A01023900010C99000307940A030C25
:1001800099000306940A61006606C40A0102390058
:10019000040C99000307D10A080C99000306940A7D
:1001A000E005BB027B07B50ABA025A06D90AA402C7
:1001B000B30A5D029C014307940A5F029E01430754
:1001C000940A050C9E014307E60A2D0A060C9E01BF
:1001D0004307EB0A290A020C9E014307F00A440A6E
:0C01E000030C9E014307F50A3B0A940A39
:080200000500080000000700E2
:021FFE00EB0FE7
:00000001FF
