:020000040000FA
:10000000FE0E2500000C2700970C02003F0C340068
:100010000600FF0C8F09FF0C8F09FF0C8F09FF0CE6
:100020008F096600830C160C400C37008A0C3800D0
:10003000C00C770197055F09200C6609C00C6609A2
:10004000010C6609180266091702660962090F0C9D
:100050007601F605320AB6029606F600320AF60076
:10006000F607B6025F09220C6609050C6609880CC2
:100070006609160266096209960A5F09200C66097C
:10008000C30C6609010C66096209960A5F09200C17
:100090006609C10C6609010C66096209960A5405D5
:1000A0001402060000085404140206000008340577
:1000B0001402060000083404140206000008570960
:1000C00053090008530957094F0900083300080C69
:1000D00032005B09F3076E0A4F096F0A530957098B
:1000E0007303F202690A5B094F09570906023500DA
:1000F0005B090008080C3200730073035B095709A1
:1001000046061305F2027D0A5B09000853095709E8
:100110005B094F0900084F0957095B0900083000C7
:100120003100F002910AF102910A00086606960A6F
:1001300061006607990A010239001E0C9900030745
:10014000960A2D0C99000306960A61006606A60A17
:10015000010239000D0C99000307960A140C99004E
:100160000306960A7A001C0C24007B006000200322
:1001700061006607B90A01023900010C9900030702
:10018000960A030C99000306960A61006606C60AE1
:1001900001023900040C99000307D30A080C9900E6
:1001A0000306960AE005BB027B07B70ABA025A06A5
:1001B000DB0AA402B50A5D029C014307960A5F02AE
:1001C0009E014307960A050C9E014307E80A2F0A81
:1001D000060C9E014307ED0A2B0A020C9E01430701
:1001E000F20A460A030C9E014307F70A3D0A960AE3
:080200000500080000000700E2
:021FFE00EB0FE7
:00000001FF
