:020000040000FA
:10000000FE0E2500000C2700000C2800970C0200B3
:100010003F0C2E000600FF0C9109FF0C9109FF0C0C
:100020009109FF0C91096600830C100C400C310003
:100030000C0C3200C00C710191056109200C68099B
:10004000C00C6809010C68091202680911026809EC
:1000500064090F0C7001F005340AB0029006F0003C
:10006000340AF000F007B0026109220C6809050C9F
:100070006809880C6809100268096409980A61090E
:10008000200C6809C30C6809010C68096409980A06
:100090006109200C6809C10C6809010C6809640930
:1000A000980AAE050E0206000008AE040E02060015
:1000B00000088E050E02060000088E040E020600DF
:1000C000000859095509000855095909510900083E
:1000D0002D00080C2C005D09ED07700A5109710A0A
:1000E000550959096D03EC026B0A5D09510959095B
:1000F00006022F005D090008080C2C006D006D033E
:100100005D095909A6060D05EC027F0A5D09000884
:10011000550959095D0951090008510959095D0935
:1001200000082A002B00EA02930AEB02930A000857
:100130006606980A610066079B0A010233001E0CDE
:1001400093000307980A2D0C93000306980A610098
:100150006606A80A010233000D0C93000307980AF3
:10016000140C93000306980A7400160C2400750002
:100170006000200361006607BB0A01023300010C26
:1001800093000307980A030C93000306980A610082
:100190006606C80A01023300040C93000307D50A5F
:1001A000080C93000306980AE005B5027507B90A22
:1001B000B4025406DD0AA402B70A570296014307A7
:1001C000980A590298014307980A050C98014307B9
:1001D000EA0A310A060C98014307EF0A2D0A020CBD
:1001E00098014307F40A480A030C98014307F90AE7
:0401F0003F0A980A20
:080800000F00050001000000DB
:021FFE00CA0F08
:00000001FF
