:020000040000FA
:10000000FE0E2500000C2700970C02003F0C2C0070
:100010000600FF0C8F09FF0C8F09FF0C8F09FF0CE6
:100020008F096600830C0E0C400C2F000C0C300066
:10003000C00C6F018F055F09200C6609C00C6609B2
:10004000010C6609100266090F02660962090F0CAD
:100050006E01EE05320AAE028E06EE00320AEE00A6
:10006000EE07AE025F09220C6609050C6609880CD2
:1000700066090E0266096209960A5F09200C660984
:10008000C30C6609010C66096209960A5F09200C17
:100090006609C10C6609010C66096209960A4C05DD
:1000A0000C02060000084C040C02060000082C0597
:1000B0000C02060000082C040C0206000008570978
:1000C00053090008530957094F0900082B00080C71
:1000D0002A005B09EB076E0A4F096F0A530957099B
:1000E0006B03EA02690A5B094F09570906022D00F2
:1000F0005B090008080C2A006B006B035B095709B9
:1001000046060B05EA027D0A5B09000853095709F8
:100110005B094F0900084F0957095B0900082800CF
:100120002900E802910AE902910A00086606960A87
:1001300061006607990A010231001E0C9100030755
:10014000960A2D0C91000306960A61006606A60A1F
:10015000010231000D0C91000307960A140C910066
:100160000306960A7200140C24007300600020033A
:1001700061006607B90A01023100010C9100030712
:10018000960A030C91000306960A61006606C60AE9
:1001900001023100040C91000307D30A080C9100FE
:1001A0000306960AE005B3027307B70AB2025206C5
:1001B000DB0AA402B50A550294014307960A5702C6
:1001C00096014307960A050C96014307E80A2F0A91
:1001D000060C96014307ED0A2B0A020C9601430711
:1001E000F20A460A030C96014307F70A3D0A960AEB
:080400000F00020000000600DD
:021FFE00EB0FE7
:00000001FF
