:020000040000FA
:10000000FE0E2500970C02003F0C2B000600FF0C93
:100010008D09FF0C8D09FF0C8D09FF0C8D09660001
:10002000830C0D0C400C2E000C0C2F00C00C6E012C
:100030008E055D09200C6409C00C6409010C64097B
:100040000F0264090E02640960090F0C6D01ED05D1
:10005000300AAD028D06ED00300AED00ED07AD026D
:100060005D09220C6409050C6409880C64090D0201
:1000700064096009940A5D09200C6409C30C6409D1
:10008000010C64096009940A5D09200C6409C10C23
:100090006409010C64096009940AAB050B020600AF
:1000A0000008AB040B02060000088B050B020600DB
:1000B00000088B040B0206000008550951090008CE
:1000C000510955094D0900082A00080C2900590951
:1000D000EA076C0A4D096D0A510955096A03E902DC
:1000E000670A59094D09550906022C0059090008EB
:1000F000080C29006A006A0359095509A6060A0571
:10010000E9027B0A590900085109550959094D09A5
:1001100000084D0955095909000827002800E70281
:100120008F0AE8028F0A00086606940A61006607D3
:10013000970A010230001E0C90000307940A2D0C50
:1001400090000306940A61006606A40A01023000CA
:100150000D0C90000307940A140C90000306940AF7
:100160007100130C24007200600020036100660718
:10017000B70A01023000010C90000307940A030C37
:1001800090000306940A61006606C40A010230006A
:10019000040C90000307D10A080C90000306940A8F
:1001A000E005B2027207B50AB1025106D90AA402EB
:1001B000B30A540293014307940A56029501430778
:1001C000940A050C95014307E60A2D0A060C9501D1
:1001D0004307EB0A290A020C95014307F00A440A77
:0C01E000030C95014307F50A3B0A940A42
:080400000F00050000000800D8
:021FFE00EA0FE8
:00000001FF
