:020000040000FA
:10000000FE0E2500000C2700970C02003F0C2D006F
:100010000600FF0C8F09FF0C8F09FF0C8F09FF0CE6
:100020008F096600830C0F0C400C30000C0C310063
:10003000C00C700190055F09200C6609C00C6609B0
:10004000010C6609110266091002660962090F0CAB
:100050006F01EF05320AAF028F06EF00320AEF00A0
:10006000EF07AF025F09220C6609050C6609880CD0
:1000700066090F0266096209960A5F09200C660983
:10008000C30C6609010C66096209960A5F09200C17
:100090006609C10C6609010C66096209960A4D05DC
:1000A0000D02060000084D040D02060000082D0593
:1000B0000D02060000082D040D0206000008570975
:1000C00053090008530957094F0900082C00080C70
:1000D0002B005B09EC076E0A4F096F0A5309570999
:1000E0006C03EB02690A5B094F09570906022E00EF
:1000F0005B090008080C2B006C006C035B095709B6
:1001000046060C05EB027D0A5B09000853095709F6
:100110005B094F0900084F0957095B0900082900CE
:100120002A00E902910AEA02910A00086606960A84
:1001300061006607990A010232001E0C9200030753
:10014000960A2D0C92000306960A61006606A60A1E
:10015000010232000D0C92000307960A140C920063
:100160000306960A7300150C240074006000200337
:1001700061006607B90A01023200010C9200030710
:10018000960A030C92000306960A61006606C60AE8
:1001900001023200040C92000307D30A080C9200FB
:1001A0000306960AE005B4027407B70AB3025306C1
:1001B000DB0AA402B50A560295014307960A5802C3
:1001C00097014307960A050C97014307E80A2F0A8F
:1001D000060C97014307ED0A2B0A020C970143070F
:1001E000F20A460A030C97014307F70A3D0A960AEA
:080400000F00020002000200DF
:021FFE00EA0FE8
:00000001FF
