:020000040000FA
:10000000FE0E2500970C02003F0C2C000600FF0C92
:100010008D09FF0C8D09FF0C8D09FF0C8D09660001
:10002000830C0E0C400C2F000C0C3000C00C6F0128
:100030008F055D09200C6409C00C6409010C64097A
:10004000100264090F02640960090F0C6E01EE05CD
:10005000300AAE028E06EE00300AEE00EE07AE0267
:100060005D09220C6409050C6409880C64090E0200
:1000700064096009940A5D09200C6409C30C6409D1
:10008000010C64096009940A5D09200C6409C10C23
:100090006409010C64096009940A4C050C0206000D
:1000A00000084C040C02060000082C050C02060097
:1000B00000082C040C02060000085509510900082C
:1000C000510955094D0900082B00080C2A0059094F
:1000D000EB076C0A4D096D0A510955096B03EA02D9
:1000E000670A59094D09550906022D0059090008EA
:1000F000080C2A006B006B035909550946060B05CD
:10010000EA027B0A590900085109550959094D09A4
:1001100000084D0955095909000828002900E8027E
:100120008F0AE9028F0A00086606940A61006607D2
:10013000970A010231001E0C91000307940A2D0C4E
:1001400091000306940A61006606A40A01023100C8
:100150000D0C91000307940A140C91000306940AF5
:100160007200140C24007300600020036100660715
:10017000B70A01023100010C91000307940A030C35
:1001800091000306940A61006606C40A0102310068
:10019000040C91000307D10A080C91000306940A8D
:1001A000E005B3027307B50AB2025206D90AA402E7
:1001B000B30A550294014307940A57029601430774
:1001C000940A050C96014307E60A2D0A060C9601CF
:1001D0004307EB0A290A020C96014307F00A440A76
:0C01E000030C96014307F50A3B0A940A41
:080400000500080000000700E0
:021FFE00EB0FE7
:00000001FF
